:100000000C9434000C9451000C9451000C94510049
:100010000C9451000C9451000C9451000C9451001C
:100020000C9451000C9451000C9451000C9451000C
:100030000C9451000C9451000C9451000C945100FC
:100040000C9451000C9451000C9451000C945100EC
:100050000C9451000C9451000C9451000C945100DC
:100060000C9451000C94510011241FBECFEFD8E026
:10007000DEBFCDBF11E0A0E0B1E0E0EFFCE002C0E8
:1000800005900D92AC30B107D9F721E0ACE0B1E0BA
:1000900001C01D92AC31B207E1F70E94CF020C946F
:1000A00076060C94000080E480937C0087E88093BF
:1000B0007A0008958770ECE7F0E09081907E90835D
:1000C0009081892B8083808180628083EAE7F0E0E1
:1000D00080818064808380917A0084FFFCCFEAE78E
:1000E000F0E08081806180832091780080917900A8
:1000F00090E0880F991F880F991F229526952695C5
:100100002370822B08954F925F926F927F929F92FD
:10011000AF92BF92CF92DF92EF92FF920F931F9315
:10012000CF93DF9380E00E945A008F3E924030F0E0
:1001300081E00E9409029924939404C081E00E9406
:100140002702912C81E00E945A008F3E924028F0B5
:1001500082E00E940902C1E004C082E00E942702FE
:10016000C0E082E00E945A008F3E924028F083E077
:100170000E94090201E004C083E00E94270200E01F
:1001800083E00E945A008F3E924030F084E00E944B
:100190000902AA24A39404C084E00E942702A12C8F
:1001A00084E00E945A008E3E924030F085E00E942A
:1001B0000902EE24E39404C085E00E942702E12CAA
:1001C00085E00E945A008E3E924030F086E00E9408
:1001D0000902CC24C39404C086E00E942702C12CEB
:1001E00091100BC0C11109C0011107C0A11005C0B9
:1001F000E11003C0CC2009F483C0692D70E080E0D9
:1002000090E00E9452052B013C01D0E0BE01660F38
:10021000771F072E000C880B990B0E945405A30131
:1002200092010E9439042B013C0110E0B801660FD5
:10023000771F600F711F072E000C880B990B0E940F
:100240005405A30192010E9439042B013C01B12CF9
:10025000B501660F771F660F771F072E000C880BFE
:10026000990B0E945405A30192010E9439042B01AD
:100270003C01F12CB701660F771F660F771F6E0DDB
:100280007F1D072E000C880B990B0E945405A301BB
:1002900092010E9439042B013C01D12CB601660F5A
:1002A000771F6C0D7D1D660F771F072E000C880BC6
:1002B000990B0E9454059B01AC01C301B2010E943D
:1002C00039042B013C01BE01690D711D600F711FC6
:1002D0006A0D7B1D6E0D7F1DE601C60FD71FBE0187
:1002E000DD0F880B990B0E9454059B01AC01C301E3
:1002F000B2010E94AA04562F472F382F292F04C07D
:1003000050E040E03FE723E4652F742F832F922FC6
:10031000DF91CF911F910F91FF90EF90DF90CF90E1
:10032000BF90AF909F907F906F905F904F90089597
:100330008AB1806F8AB984B1896084B98BB1806FCA
:100340008BB985B1896085B9089520E030E05CC043
:100350008BB18F7E8BB94FEF81EE94E0415080409E
:100360009040E1F700C000008BB180618BB98BB188
:100370008F7D8BB94FEF81EE94E0415080409040EB
:10038000E1F700C000008BB180628BB98BB18F7B2D
:100390008BB94FEF81EE94E0415080409040E1F7FF
:1003A00000C000008BB180648BB98BB18F778BB9A3
:1003B0004FEF81EE94E0415080409040E1F700C063
:1003C00000008BB180688BB985B18E7F85B94FEF06
:1003D00081EE94E0415080409040E1F700C0000081
:1003E00085B1816085B985B1877F85B94FEF81EE91
:1003F00094E0415080409040E1F700C0000085B19A
:10040000886085B92F5F3F4F233031050CF4A0CFB2
:100410000895853080F44BB190E0039621E030E000
:10042000B90102C0660F771F8A95E2F7CB0180956C
:1004300084238BB90895853021F485B18E7F85B9E9
:100440000895863019F485B1877F85B90895853080
:1004500070F49BB1482F50E04D5F5F4F21E030E0DA
:1004600002C0220F331F4A95E2F7292B2BB98530A2
:1004700019F495B1916095B9863019F485B1886009
:1004800085B908954F925F926F927F928F929F925B
:10049000AF92BF92CF92DF92EF92FF926B017C01FD
:1004A000CA01B901A70196010E9438046B017C01C1
:1004B000209108013091090140910A0150910B01EE
:1004C0000E9409062B013C016091100170911101FD
:1004D00080911201909113010E9454054B015C011F
:1004E00020910401309105014091060150910701CE
:1004F0000E9409069B01AC01C301B2010E943904AC
:100500002B013C0160910C0170910D0180910E0155
:1005100090910F010E9454059B01AC01C701B601E7
:100520000E943804209100013091010140910201A4
:10053000509103010E9409069B01AC01C301B20165
:100540000E9439042B013C01A5019401C701B601A9
:100550000E9439040E941C056093100170931101E0
:100560008093120190931301C701B6010E941C05EC
:1005700060930C0170930D0180930E0190930F0115
:10058000C301B201FF90EF90DF90CF90BF90AF908A
:100590009F908F907F906F905F904F9008950E94F2
:1005A00098010E94A5010E94B8030E945300C12C2B
:1005B000D12C76010E948300609318017093190179
:1005C00080931A0190931B0120E030E04FE753E441
:1005D0000E94A504811108C0C0921801D09219018F
:1005E000E0921A01F0921B016091180170911901BB
:1005F00080911A0190911B0120E030E040E650E428
:100600000E944202609314017093150180931601B9
:100610009093170120E030E04FEF53E40E9404066E
:10062000181664F480E090E0AFEFB3E48093140117
:1006300090931501A0931601B093170160911401D6
:1006400070911501809116019091170120E030E022
:100650004FEF53EC0E94A504882364F480E090E0FF
:10066000AFEFB3EC8093140190931501A0931601A2
:10067000B0931701C0901401D0901501E0901601BD
:10068000F090170120E030E0A901C701B6010E94F7
:10069000040688234CF120E030E04FE753E4C70123
:1006A000B6010E940406181674F420E030E04FE70B
:1006B00053E4C701B6010E9438040E94230581E07B
:1006C0000E9400040DC0A701960160E070E08FE772
:1006D00093E40E9438040E94230582E00E940004F3
:1006E0006FEF81E00E94C803C0901401D090150103
:1006F000E0901601F090170120E030E0A901C70159
:10070000B6010E94A504181654F120E030E04FE72E
:1007100053ECC701B6010E94A50488237CF420E0B5
:1007200030E04FE753E4C701B6010E943904905806
:100730000E94230582E00E94C8030DC020E030E043
:100740004FE753E4C701B6010E9439040E94230514
:1007500081E00E94C8036FEF82E00E940004C09015
:100760001801D0901901E0901A01F0901B0122CFDE
:1007700081EA8093800084E08093810084B182606C
:1007800084B984B1846084B98AB18F608AB90895CC
:10079000CF93811107C08BB18E7F8BB98BB18D7FC9
:1007A0008BB911C0813039F48BB18D7F8BB98BB18E
:1007B00081608BB908C0823031F48BB18E7F8BB9E8
:1007C0008BB182608BB9CFB7F89470E080E090E095
:1007D0000E94520520E030E04FE753E40E94AA0453
:1007E00020E030E040EF52E40E9409060E94230519
:1007F00070E07093890060938800CFBFCF91089517
:10080000CF93811107C08BB18B7F8BB98BB1877F61
:100810008BB911C0823039F48BB18B7F8BB98BB11E
:1008200088608BB908C0813031F48BB1877F8BB978
:100830008BB184608BB9CFB7F89470E080E090E022
:100840000E94520520E030E04FE753E40E94AA04E2
:1008500020E030E040EF52E40E9409060E942305A8
:1008600070E070938B0060938A00CFBFCF910895A2
:100870005058BB27AA270E9450040C94CA050E9416
:10088000BC0538F00E94C30520F039F49F3F19F4ED
:1008900026F40C94B9050EF4E095E7FB0C94B3052F
:1008A000E92F0E94DB0558F3BA1762077307840724
:1008B000950720F079F4A6F50C94FD050EF4E0956B
:1008C0000B2EBA2FA02D0B01B90190010C01CA010A
:1008D000A0011124FF27591B99F0593F50F4503EB5
:1008E00068F11A16F040A22F232F342F4427585FA7
:1008F000F3CF469537952795A795F0405395C9F7BF
:100900007EF41F16BA0B620B730B840BBAF0915076
:10091000A1F0FF0FBB1F661F771F881FC2F70EC015
:10092000BA0F621F731F841F48F4879577956795E8
:10093000B795F7959E3F08F0B0CF9395880F08F0D4
:100940009927EE0F9795879508950E948F0508F4D3
:1009500081E008950E94BE040C94CA050E94C3055C
:1009600058F00E94BC0540F029F45F3F29F00C9438
:10097000B30551110C94FE050C94B9050E94DB05DA
:1009800068F39923B1F3552391F3951B550BBB27BE
:10099000AA2762177307840738F09F5F5F4F220F03
:1009A000331F441FAA1FA9F335D00E2E3AF0E0E8FA
:1009B00032D091505040E695001CCAF72BD0FE2F44
:1009C00029D0660F771F881FBB1F261737074807D8
:1009D000AB07B0E809F0BB0B802DBF01FF27935890
:1009E0005F4F3AF09E3F510578F00C94B3050C949C
:1009F000FE055F3FE4F3983ED4F3869577956795BF
:100A0000B795F7959F5FC9F7880F911D96958795C4
:100A100097F90895E1E0660F771F881FBB1F6217E3
:100A200073078407BA0720F0621B730B840BBA0BA1
:100A3000EE1F88F7E09508950E9423056894B11190
:100A40000C94FE0508950E94E30588F09F5798F0E6
:100A5000B92F9927B751B0F0E1F0660F771F881FC3
:100A6000991F1AF0BA95C9F714C0B13091F00E94DD
:100A7000FD05B1E008950C94FD05672F782F8827B8
:100A8000B85F39F0B93FCCF3869577956795B39504
:100A9000D9F73EF490958095709561957F4F8F4F73
:100AA0009F4F0895E89409C097FB3EF49095809578
:100AB000709561957F4F8F4F9F4F9923A9F0F92F24
:100AC00096E9BB279395F695879577956795B795A2
:100AD000F111F8CFFAF4BB0F11F460FF1BC06F5F88
:100AE0007F4F8F4F9F4F16C0882311F096E911C09A
:100AF000772321F09EE8872F762F05C0662371F0BB
:100B000096E8862F70E060E02AF09A95660F771FCE
:100B1000881FDAF7880F9695879597F90895990FAA
:100B20000008550FAA0BE0E8FEEF16161706E807B7
:100B3000F907C0F012161306E407F50798F0621BD8
:100B4000730B840B950B39F40A2661F0232B242BAD
:100B5000252B21F408950A2609F4A140A6958FEFCC
:100B6000811D811D089597F99F6780E870E060E01E
:100B700008959FEF80EC089500240A941616170636
:100B800018060906089500240A941216130614067E
:100B900005060895092E0394000C11F4882352F0E1
:100BA000BB0F40F4BF2B11F460FF04C06F5F7F4F99
:100BB0008F4F9F4F089557FD9058440F551F59F080
:100BC0005F3F71F04795880F97FB991F61F09F3F3A
:100BD00079F087950895121613061406551FF2CF63
:100BE0004695F1DF08C0161617061806991FF1CFB3
:100BF00086957105610508940895E894BB276627DA
:100C00007727CB0197F908950E948F0508F48FEF9D
:100C100008950E941C060C94CA050E94BC0538F079
:100C20000E94C30520F0952311F00C94B3050C9499
:100C3000B90511240C94FE050E94DB0570F3959F05
:100C4000C1F3950F50E0551F629FF001729FBB27C3
:100C5000F00DB11D639FAA27F00DB11DAA1F649F5F
:100C60006627B00DA11D661F829F2227B00DA11D12
:100C7000621F739FB00DA11D621F839FA00D611D98
:100C8000221F749F3327A00D611D231F849F600DB9
:100C9000211D822F762F6A2F11249F5750409AF0E2
:100CA000F1F088234AF0EE0FFF1FBB1F661F771F6E
:100CB000881F91505040A9F79E3F510580F00C9439
:100CC000B3050C94FE055F3FE4F3983ED4F386959C
:100CD00077956795B795F795E7959F5FC1F7FE2BD9
:100CE000880F911D9695879597F90895F894FFCFF1
:0C0CF0006F12833A0000B040000020406A
:00000001FF
